:100000000C94C9090C94100A0C94100A0C94100A50
:100010000C94100A0C94100A0C94100A0C94100AF8
:100020000C94100A0C94100A0C94FE330C94D034E7
:100030000C948B240C94100A0C94100A0C94100A43
:100040000C94100A0C94100A0C94100A0C94100AC8
:100050000C94100A0C94FF240C94100A0C94100AAF
:100060000C94100A0C94100A0C94100A0C94100AA8
:100070000C94100A0C94100A0C94100A0C94100A98
:100080000C94100A0C94100A0C94100A0C94100A88
:100090000C94100A0C94100A0C94100A0C94100A78
:1000A0000C94100A0C94100A0C94100AE30BE50B44
:1000B000F00BE70BE90BEB0BED0BEF0BF20BF40B7B
:1000C000F60B010CF80BFA0BFC0BFE0B000C030CEF
:1000D000BF1ABF1AF11AF11A2F1B4F1BBF1CBF1CEE
:1000E000911BBF1C3E1C3E1CAF1CBF1CBF1CB81C80
:1000F0004B1C4B1C4B1C4B1C4B1C4B1C4B1C4B1CC8
:100100004B1C4B1C4B1C4B1C4B1C4B1C4B1C4B1CB7
:100110005C1C6A1C711C781C821C4E1D4E1D601DCF
:10012000601D571D601D601D601D4E1D4E1D5C1D18
:10013000601D601D5C1D3D35643556366435563690
:10014000B035D33556362936383603E103E200029E
:10015000E102E2002B0014001A000800150017004D
:100160001C0018000C00120013002A0001510400AA
:100170001600070009000A000B000D000E000F001A
:1001800033003400E1001D001B00060019000500CB
:10019000110010003600370038002900E00002513D
:1001A000E3002C000000000000002800E6002E0004
:1001B0000000035135001E021F022002210222020C
:1001C000230224022502260227024C0001003100EE
:1001D00034002D002E002F0030005100A800AA008E
:1001E000A900340201002900BE5C460001000100A4
:1001F0000100AD00AE00AC00AB0001000100010049
:1002000001000100000000000000010001000100E9
:100210000000010035021E001F0020002100220006
:1002200023002400250026002700010029003102B8
:1002300034022D022E022F02300221002200230060
:10024000A9000100010001000100010001000100FE
:1002500027001E001F005200AA000100E00001005C
:10026000E300E20000000000000001005000510027
:1002700000004F00005C01000100010001000100CE
:1002800001003A003B003C003D0001002900010054
:10029000010001000100010001003E003F0040009C
:1002A00041000100E1004B004E002000210022002F
:1002B00023004200430044004500A6000100E20084
:1002C00005002C00000000000000060001000100F5
:1002D0000000010044454255473A20656E61626C5A
:1002E00065642E0A0000000000000000002A2B2890
:1002F00000000000000000000000000000000000FE
:1003000029000000002C1E34202122243426272519
:100310002E362D3738271E1F202122232425263351
:1003200033362E37381F0405060708090A0B0C0D53
:100330000E0F101112131415161718191A1B1C1D65
:100340002F3130232D350405060708090A0B0C0D43
:100350000E0F101112131415161718191A1B1C1D45
:100360002F3130354C00000000000000000000007C
:10037000000000000000000000000000000000007D
:100380000000000000000101010101010001010164
:10039000010000000000000000000000000000015B
:1003A000000100010101010101010101010101013F
:1003B000010101010101010101010101010101012D
:1003C000000000010100000000000000000000002B
:1003D000000000000000000000000000000000001D
:1003E00001010101000A002530313662003A200087
:1003F00025303258000A722F6320303132333435C1
:10040000363738394142434445460A007267626CC8
:10041000696768742073657420687376205B4E4F3B
:10042000454550524F4D5D3A2025752C25752C259C
:10043000750A007267626C6967687420736574205E
:10044000687376205B454550524F4D5D3A202575C7
:100450002C25752C25750A007267626C69676874B3
:10046000207261696E626F7720736574206873769D
:100470003A2025752C25752C25642C25750A0072CB
:1004800067626C696768742064697361626C652077
:100490005B6E6F454550524F4D5D3A207267626CFE
:1004A000696768745F636F6E6669672E656E616207
:1004B0006C65203D2025750A007267626C6967686B
:1004C000742064697361626C65205B454550524FCE
:1004D0004D5D3A207267626C696768745F636F6E26
:1004E0006669672E656E61626C65203D2025750A20
:1004F000007267626C6967687420656E61626C6522
:10050000205B4E4F454550524F4D5D3A2072676219
:100510006C696768745F636F6E6669672E656E618C
:10052000626C65203D2025750A007267626C696700
:10053000687420656E61626C65205B454550524F62
:100540004D5D3A207267626C696768745F636F6EB5
:100550006669672E656E61626C65203D2025750AAF
:10056000007267626C6967687420746F67676C6596
:10057000205B454550524F4D5D3A207267626C6971
:100580006768745F636F6E6669672E656E61626C23
:1005900065203D2025750A007267626C6967687482
:1005A000206D6F6465205B4E4F454550524F4D5D49
:1005B0003A2025750A007267626C69676874206D5D
:1005C0006F6465205B454550524F4D5D3A2025755F
:1005D0000A007267626C696768745F696E6974208B
:1005E0007267626C696768745F636F6E6669672EB5
:1005F0006D6F6465203D20302E2057726974652030
:1006000064656661756C742076616C7565732074C1
:100610006F20454550524F4D2E0A007267626C693B
:100620006768745F696E6974206565636F6E66697B
:1006300067206973206E6F7420656E61626C6564FB
:100640002E0A007267626C696768745F696E69740C
:10065000207374617274210A007267626C69676842
:10066000745F696E69742063616C6C65642E0A0046
:100670007267626C696768745F636F6E6669672E24
:100680007370656564203D2025640A007267626CA2
:10069000696768745F636F6E6669672E76616C2048
:1006A0003D2025640A007267626C696768745F6345
:1006B0006F6E6669672E736174203D2025640A00A1
:1006C0007267626C696768745F636F6E6669672ED4
:1006D000687565203D2025640A007267686C69674B
:1006E00068745F636F6E6669672E6D6F6465203D29
:1006F0002025640A007267626C696768745F636FC3
:100700006E6669672E656E61626C65203D202564AA
:100710000A007267626C696768745F636F6E66690E
:1007200067206570726F6D0A006801F000B4007890
:10073000005A000000000000010101010101010157
:100740000102020202020202020203030303030384
:100750000303040404040404050505050506060650
:10076000060607070707080808080909090A0A0A08
:100770000A0B0B0B0C0C0C0D0D0D0E0E0F0F0F10AA
:100780001011111112121313141415151616171730
:10079000181819191A1A1B1C1C1D1D1E1F1F20209A
:1007A0002122222324252526272728292A2B2B2CE2
:1007B0002D2E2F2F30313233343536363738393A03
:1007C0003B3C3D3E3F4041424344464748494A4BFB
:1007D0004C4D4F50515253555657585A5B5C5E5FC3
:1007E000606263646667696A6C6D6E70717374765B
:1007F00078797B7C7E8081838486888A8B8D8F91BB
:10080000929496989A9B9D9FA1A3A5A7A9ABADAFE3
:10081000B1B3B5B7B9BBBDBFC1C4C6C8CACCCFD1CF
:10082000D3D6D8DADCDFE1E4E6E8EBEDF0F2F5F779
:10083000FAFCFF0A002530325820006B6579626FA0
:100840006172645F7265706F72743A20000A0025ED
:10085000303258006B6579626F6172645F736574E2
:100860005F6C65643A200064656C5F6B65795F62FC
:1008700069743A2063616E27742064656C3A2025A0
:100880003032580A006164645F6B65795F62697435
:100890003A2063616E2774206164643A2025303207
:1008A000580A00646F6E652E0A00626F6F746D6186
:1008B000676963207363616E3A202E2E2E20002913
:1008C0000A002575002F002575005D2800256400AD
:1008D0002000256400200025640020002564007CA1
:1008E0000025303258006D6F7573656B6579205B3C
:1008F00062746E7C782079207620685D287265703D
:100900002F61636C293A205B006D6B5F77686565CA
:100910006C5F74696D655F746F5F6D6178203D20F9
:1009200025640A006D6B5F776865656C5F6D617843
:100930005F7370656564203D2025640A006D6B5F00
:1009400074696D655F746F5F6D6178203D2025640B
:100950000A006D6B5F6D61785F7370656564203D43
:100960002025640A006D6B5F696E74657276616C38
:10097000203D2025640A006D6B5F64656C61792001
:100980003D2025640A006D6B5F776865656C5F7458
:10099000696D655F746F5F6D6178203D2025640A25
:1009A000006D6B5F776865656C5F6D61785F737014
:1009B000656564203D2025640A006D6B5F74696D78
:1009C000655F746F5F6D6178203D2025640A006D5E
:1009D0006B5F6D61785F7370656564203D20256491
:1009E0000A006D6B5F696E74657276616C203D20E4
:1009F00025640A006D6B5F64656C6179203D20257C
:100A0000640A000A00257500363A20776865656C2F
:100A10005F74696D655F746F5F6D61783A20000A7D
:100A200000257500353A20776865656C5F6D6178E3
:100A30005F73706565643A20000A00257500343ADA
:100A40002074696D655F746F5F6D61783A20000A8C
:100A500000257500333A206D61785F7370656564B9
:100A60003A20000A00257500323A20696E746572DA
:100A700076616C286D73293A20000A0025750031D3
:100A80003A2064656C6179282A31306D73293A20E7
:100A9000000A092D2056616C756573202D0A004DE2
:100AA0003E004D25643E20003F0073657420646560
:100AB0006661756C740A00433E2000776865726554
:100AC0002064656C74613A20637572736F723D25A2
:100AD000642C20776865656C3D25640A5365652044
:100AE000687474703A2F2F656E2E77696B69706524
:100AF0006469612E6F72672F77696B692F4D6F750F
:100B000073655F6B6579730A000A092D204D6F7557
:100B100073656B6579202D0A4553432F713A09712E
:100B20007569740A313A0964656C6179282A313033
:100B30006D73290A323A09696E74657276616C28A0
:100B40006D73290A333A096D61785F737065656466
:100B50000A343A0974696D655F746F5F6D61780A74
:100B6000353A09776865656C5F6D61785F737065AC
:100B700065640A363A09776865656C5F74696D6506
:100B80005F746F5F6D61780A0A703A097072696EFE
:100B9000742076616C7565730A643A097365742014
:100BA00064656661756C74730A75703A092B310A55
:100BB000646F776E3A092D310A706775703A092BA8
:100BC00031300A7067646F776E3A092D31300A0A46
:100BD0007370656564203D2064656C7461202A2013
:100BE0006D61785F7370656564202A202872657076
:100BF000656174202F2074696D655F746F5F6D612E
:100C000078290A003F004D3E2000433E20004C253D
:100C1000640A0074696D65725F72656164333228BD
:100C2000293A202530346C580A006B65796D617063
:100C30005F636F6E6669672E6E6B726F3A20255820
:100C40000A006B6579626F6172645F69646C653A12
:100C50002025580A006B6579626F6172645F70725B
:100C60006F746F636F6C3A2025580A00686F737455
:100C70005F6B6579626F6172645F6C65647328296C
:100C80003A2025580A000A092D205374617475739F
:100C9000202D0A004743433A20342E392E3220417A
:100CA00056522D4C4942433A20312E382E3073761D
:100CB0006E204156525F415243483A206176723568
:100CC0000A004F5054494F4E533A204C554641204C
:100CD000424F4F544D41474943204D4F5553454B8B
:100CE00045592045585452414B455920434F4E5386
:100CF0004F4C4520434F4D4D414E44204E4B524F9B
:100D000020343039360A004255494C443A202230CA
:100D10002E362E34332D64697274792220283231B4
:100D20003A30373A3339204E6F7620203320323034
:100D30003139290A005649443A2030784645414520
:100D40002854686556616E204B6579626F617264E4
:100D50007329205049443A20307838383437284DA8
:100D6000696E6956616E29205645523A20307830B6
:100D70003030310A00444553433A20486F7473774A
:100D80006170204D696E6956616E203430250A000D
:100D90000A092D2056657273696F6E202D0A000AAC
:100DA000092D20436F6E736F6C65202D0A455343E8
:100DB0002F713A09717569740A6D3A096D6F75730F
:100DC000656B65790A000A092D204D61676963200A
:100DD0002D0A443A094465627567204D6573736155
:100DE000676520546F67676C650A583A094D6174EE
:100DF000726978204465627567204D6F6465205480
:100E00006F67676C65202D2053686F77206B65795D
:100E10007072657373657320696E206D6174726999
:100E20007820677269640A4B3A094B6579626F6191
:100E3000726420446562756720546F67676C652033
:100E40002D2053686F77206B6579707265737320FE
:100E50007265706F72740A4D3A0944656275672055
:100E60004D6F75736520546F67676C650A563A0954
:100E700056657273696F6E0A533A095374617475DB
:100E8000730A433A09416374697661746520436F5C
:100E90006E736F6C65204D6F64650A46312D463167
:100EA000303A0953776974636820746F204C617914
:100EB000657220302D392028463130203D204C30BD
:100EC000290A302D393A0953776974636820746FA1
:100ED000204C6179657220302D390A4553433A0917
:100EE00053776974636820746F204C617965722050
:100EF000302028616C7465726E617465206B657951
:100F00002031290A47524156453A0953776974639B
:100F10006820746F204C6179657220302028616CE4
:100F20007465726E617465206B65792032290A5090
:100F3000415553453A094A756D7020746F20426FD0
:100F40006F746C6F616465722028526573657429D3
:100F50000A453A095072696E7420454550524F4D0A
:100F60002053657474696E67730A4E3A094E4B528A
:100F70004F20546F67676C650A000A002575002EC4
:100F80006E6B726F3A20000A002575002E73776130
:100F9000705F6261636B736C6173685F6261636BE6
:100FA00073706163653A20000A002575002E73771F
:100FB00061705F67726176655F6573633A20000AEE
:100FC000002575002E6E6F5F6775693A20000A0074
:100FD0002575002E737761705F72616C745F726744
:100FE00075693A20000A002575002E737761705FDD
:100FF0006C616C745F6C6775693A20000A00257536
:10100000002E636170736C6F636B5F746F5F636FEF
:101010006E74726F6C3A20000A002575002E73778B
:1010200061705F636F6E74726F6C5F636170736C1D
:101030006F636B3A20000A0025303258006B6579E7
:101040006D61705F636F6E6669672E7261773A20BB
:10105000000A002575002E6D6F7573653A20000A31
:10106000002575002E6B6579626F6172643A20000D
:101070000A002575002E6D61747269783A20000AA5
:10108000002575002E656E61626C653A20000A00CD
:10109000253032580064656275675F636F6E6669FC
:1010A000672E7261773A20000A0025750064656634
:1010B00061756C745F6C617965723A20003F004E17
:1010C0004B524F3A206F66660A004E4B524F3A2001
:1010D0006F6E0A000A6D6F7573653A206F66660A57
:1010E000000A6D6F7573653A206F6E0A000A6B65B2
:1010F00079626F6172643A206F66660A000A6B65F6
:1011000079626F6172643A206F6E0A000A6D6174D1
:101110007269783A206F66660A000A6D61747269B6
:10112000783A206F6E0A000A64656275673A206F2C
:1011300066660A000A64656275673A206F6E0A0087
:101140000A0A4A756D70696E6720746F20626F6F4E
:10115000746C6F616465722E2E2E2000433E200059
:101160006565636F6E6669673A0A005B735D004B85
:101170006579626F6172642073746172742E0A0003
:101180005B575D005B535D005B525D005B445D003F
:101190005B435D0004033000000010034D00690054
:1011A0006E006900560061006E00000022035400CA
:1011B00068006500560061006E0020004B0065006D
:1011C000790062006F00610072006400730000002B
:1011D0000403090409028D00050100A0320904007E
:1011E0000001030101000921110100012240000753
:1011F00005810308000A0904010001030102000936
:101200002111010001224D000705820308000A098F
:10121000040200010300000009211101000122362F
:10122000000705830308000A090403000203000005
:10123000000921110100012222000705840320007A
:101240000107050403200001090404000103000054
:101250000009211101000122390007058503200042
:10126000011201100100000008AEFE4788010001D4
:1012700002030105010906A101050719E029E71587
:1012800000250195087501810205081901290595B8
:101290000575019102950175039101050719002952
:1012A000F71500250195F875018102C00631FF0987
:1012B00074A1010975150026FF00952075088102AB
:1012C0000976150026FF00952075089102C00501DA
:1012D0000980A10185021601002603001A81002A57
:1012E0008300751095018100C0050C0901A10185DD
:1012F00003160100269C021A01002A9C0275109513
:10130000018100C005010902A1010901A10005092F
:101310001901290515002501950575018102950121
:10132000750381010501093009311581257F950279
:101330007508810609381581257F95017508810694
:10134000050C0A38021581257F950175088106C0B4
:10135000C005010906A101050719E029E7150025C7
:10136000019508750181029501750881010508192B
:1013700001290595057501910295017503910105F6
:1013800007190029FF150026FF0095067508810042
:10139000C00011241FBECFEFDAE0DEBFCDBF04B620
:1013A00003FE27C080913A0290913B02A0913C023B
:1013B000B0913D028730904BA740B04BD1F41092D2
:1013C0003A0210923B0210923C0210923D0214BE6F
:1013D00084B7877F84BF0FB6F894A895809160008A
:1013E000886180936000109260000FBEE0E0F8E337
:1013F000099511E0A0E0B1E0EAE1FEE602C0059047
:101400000D92A634B107D9F722E0A6E4B1E001C0FD
:101410001D92AA33B207E1F70E9419310C940B37E1
:101420000C940000FF93EF93E0914601F091470187
:10143000309709F00995EF91FF910895FC0185918E
:10144000803011F0EFDFFBCF0895FF27E0E230E2BC
:1014500047FF0CC0419597FF09C0EDE2609570957C
:1014600080959095611D711D811D911D27FF02C002
:10147000219530E350E2AA27660F771F881F991F36
:10148000AA1FA41710F0A41B63955A95A9F7AA30B8
:1014900008F0A95FA05DAF93F39561157105810513
:1014A000910541F7ED3211F4EF93F395F21718F42B
:1014B0003F93F395FBCF8F91B5DFFA95E1F7089550
:1014C000E991F9918591803021F0853219F0AADFF8
:1014D000F9CF089520E0E89455915532C1F3503387
:1014E00011F4689455915A3348F4505390F3220FF5
:1014F000022E220F220F200D250FF4CF0EF421957E
:1015000089919991533619F3533729F1533559F18C
:10151000BC0188279927E8945C3621F48991999138
:1015200068945591543639F446EF7EF077FF0DC03C
:101530008FEF9FEF0AC055374AE039F0583540E148
:1015400021F0523642E009F00895FF93EF937DDFDA
:10155000EF91FF91B7CFFF93EF93FC018191803022
:10156000B9F360DFFBCFFF93EF9368DFF1CFDF9339
:10157000CF93CDB7DEB72596A3DFCF91DF91089546
:101580000C94E20A0C94FB100C94C80A0C942E0BD9
:10159000CF93FB01C281CC2349F08A3D9C4579F46D
:1015A0008FE491E00E94410EC0E009C08A3D9C4555
:1015B00029F48AE491E00E94410E01C0C1E08C2F21
:1015C000CF9108950C94D013CF93DF93CDB7DEB7AE
:1015D0002C970FB6F894DEBF0FBECDBFFE0131963B
:1015E00089E0DF011D928A95E9F71A8681E08B87F1
:1015F00082E08C8787E28A838AEE89839FEF9B83D0
:1016000063FF04C09A83998384E48B8361FF05C0E0
:101610008FEF8D8399E79C838E8362FF02C08FEFEB
:101620008F8343E0BE01665F7F4FCF010E94DF16CC
:101630002C960FB6F894DEBF0FBECDBFDF91CF91D1
:1016400008950E945A17482F6091B7017091B80110
:101650008091B9019091BA010C94E40A482F6091ED
:10166000B7017091B8018091B9019091BA010C94C1
:10167000E40ACF92DF92EF92FF926B017C010E940D
:101680005A17482FC701B6010E94E40AC701B601E4
:10169000FF90EF90DF90CF90089581E008950E9431
:1016A0003C1D2FEF84E39CE0215080409040E1F707
:1016B00000C000000C9425250F931F93CF93DF9358
:1016C0008C01FC01C081D181CE010E943822BE0173
:1016D0000E944E0EEC01B8010E94C40A882309F44E
:1016E00071C2B801CE010E94AC10882309F46AC20D
:1016F000C93CFCE5DF0741F4F8018281882309F445
:1017000061C20E9464145EC2CA3C8CE5D80708F02E
:1017100016C1C13C9CE5D90761F4F8018281882398
:1017200009F450C20E94EA228272F1F00E94C413AE
:1017300049C2C23CECE5DE07D0F0F8018281C53C2D
:10174000FCE5DF0709F4D0C008F0E0C0C33CECE5DD
:10175000DE0709F4CFC008F0D3C0882309F432C2F1
:101760000E94EA22827211F30E94C1132BC2C5317A
:10177000FCE5DF0708F081C0C2308CE5D80708F42B
:1017800052C0F8018281882309F459C00E947C2349
:10179000811102C00E945B230E94992390E09093E4
:1017A0002C0280932B02FE01E350FC45E231F1054F
:1017B00030F4EA5AFF4F80912B020C94BD36809191
:1017C0002B02816027C0826025C0846023C08061B5
:1017D00021C080621FC080641DC080681BC08460FF
:1017E000886018C08E7F16C08D7F14C08B7F12C09A
:1017F0008F7E10C08F7D0EC08F7B0CC08F770AC08C
:101800008B7F877F07C087FB222720F991E09227F3
:1018100090FB87F980932B0280912B020E949D23DD
:101820000E943C1DCFC1C1159CE5D90779F0C1309C
:10183000DC45A1F081E080934D0180934E01C80109
:10184000DF91CF911F910F910C944D0BF801828184
:10185000882309F4B7C10E944F0BB4C1F8018281FB
:10186000882309F4AFC18091E40181608093E40191
:1018700084ED92E00E941E0AA5C1C531FCE5DF0798
:1018800039F50E94EA22282FF80182814091000157
:1018900050910101882379F02A7A91E009F490E0CF
:1018A00090934801911102C069E201C065E3CA0149
:1018B0000E9420240AC080914801811102C069E27F
:1018C00001C065E3CA010E942B240E94B7227AC19D
:1018D000C03CDC4509F0AECFF8018281882309F4D1
:1018E00071C10E94D7146EC1882309F46BC10E9494
:1018F000751668C1882309F465C10E943E1662C14D
:10190000882309F45FC10E9456165CC1C73C9CE560
:10191000D90731F4882309F455C10E94AA1652C18F
:10192000C83CDC4530F4882309F44CC10E94901671
:1019300049C1882309F446C10E94C51643C1C03D70
:10194000FCE5DF07C1F4F8018281882309F43AC17C
:101950000E948513653171058105910540F00E9453
:101960008513673171058105910508F4FDCE85E188
:101970000E94BE1327C1C13D8CE5D80708F07AC08C
:10198000CC3C9CE5D907B1F4F8018281882309F4A5
:1019900019C10E948513623071058105910540F0DF
:1019A0000E948513653071058105910508F4DCCE30
:1019B00082E0DECFCD3CECE5DE07B8F4CA3CFCE5C6
:1019C000DF0741F4F8018281882309F4FBC00E94FB
:1019D0007914F8C0CB3CDC4509F02CCFF8018281AA
:1019E000882309F4EFC081E0C3CFF8018281CE3CA7
:1019F000FCE5DF07A1F4882309F4E4C00E94851305
:101A0000693071058105910540F00E9485136E30A3
:101A100071058105910508F4A7CE89E0A9CFCF3CD7
:101A2000DC45A0F4882309F4CDC00E9485136630FC
:101A300071058105910540F00E948513683071059C
:101A40008105910508F490CE86E092CF882309F4B1
:101A5000B9C00E9485136F3071058105910540F072
:101A60000E948513643171058105910508F47CCECF
:101A70008FE07ECFC43DECE5DE0739F5F8018281C9
:101A8000882361F010924E010E94BD2490934C0176
:101A900080934B0180E20E947B1A94C080914E019A
:101AA00081110FC080914B0190914C010E94D5246F
:101AB0008F3A910530F487E20E940D1987E20E9467
:101AC0001C1A80E20E94821A7DC0C53DFCE5DF073A
:101AD00008F043C0F8018281C23DFCE5DF07A1F4B4
:101AE000882309F46FC00E9485136931710581054F
:101AF000910540F00E9485136232710581059105C0
:101B000008F432CE89E134CFC33DDC4528F4882384
:101B100009F458C088E12CCF882351F010924D0170
:101B20000E94BD2490934A018093490182E0B3CF83
:101B300080914D0181110FC08091490190914A011E
:101B40000E94D5248F3A910530F486E20E940D1947
:101B500086E20E941C1A82E0B5CFC83DECE5DE07A4
:101B600031F4F8018281882369F180E009C0C93D20
:101B7000FCE5DF0741F4F8018281882319F182E056
:101B80000E94C1311FC0C53DDC4509F053CEF801AC
:101B90008281811177CF80914E01811192CF809106
:101BA0004B0190914C010E94D5248F3A910508F089
:101BB00088CF80E20E94821A88E20E940D1988E292
:101BC0000E941C1A80E0DF91CF911F910F91089520
:101BD000CF93282F30E0F901EB51FD4FC491F9016B
:101BE000EB59FC4F2491222359F081EE0E940D19EC
:101BF0008C2F0E940D198C2F0E941C1A81EE04C09C
:101C00008C2F0E940D198C2FCF910C941C1A0F93BE
:101C10001F93CF93DF93EC01062FFE01849188235D
:101C200059F19E012F5F3F4F813041F4E901F901E5
:101C30001491812F0E940D19812F0DC0823031F433
:101C4000E901F90184910E940D190AC0833031F431
:101C5000E901F90184910E941C1A02C00E94E80D5A
:101C60002196802F8823C9F2EFE9FFE03197F1F741
:101C700000C000008150F6CFDF91CF911F910F91EE
:101C8000089560E00C94070E0C94C00A0C94C20AEC
:101C90000C94C60A80E090E0089508959CE0799F36
:101CA000F001112490E3899FE00DF11D1124E60F4E
:101CB000F11DEE0FFF1FEC5AFE4F85919491089590
:101CC000880F991FFC01EB51FC4F85919491089569
:101CD000CF93DF930E944E0E0E940B10EC018115F2
:101CE00020E59207F0F5811530E4930708F018C15C
:101CF000883E910500F5803E910508F088C1883A3C
:101D0000910570F4853A910508F09AC081309105EB
:101D100009F47DC108F434C1049708F078C130C1DA
:101D20008D3B910508F497C0803C910508F428C1CB
:101D3000805C9109E7C08115904258F4C11581E09B
:101D4000D80708F064C1C03FD10508F419C1D065B7
:101D50005EC1C11590E3D90708F0D8C0CE019F70CD
:101D6000D1C0811525E5920708F043C0811534E5FF
:101D7000930708F0ECC0811542E5940708F5C115FA
:101D800081E5D80708F0CFC02C2F237081E090E0C8
:101D900002C0880F991F2A95E2F79C689E0174E0A3
:101DA000369527957A95E1F72370922BCF70C695DB
:101DB000C69530E2C39FE0011124C82BD92B27C15F
:101DC000869586959E0123703327C115D34508F06B
:101DD000AFC040E2849FC0011124C1E0D0E002C046
:101DE000CC0FDD1F2A95E2F78C2B9D2BEC01DC68D4
:101DF0000EC1811529E5920778F4811538E593071E
:101E000008F0AAC08115964508F0BAC0CF71DD2749
:101E1000DC2FCC27D062FBC0C1158AE5D80708F4B7
:101E2000A0C0CE0190568115904208F0A9C08D2F18
:101E30008F710E948810DD27D0628F71D82BE7C088
:101E4000853A910509F49FC0863A910509F09EC034
:101E5000C2E8D0E4DCC0883A910509F49AC0893A16
:101E6000910509F499C08A3A910509F498C08B3A12
:101E7000910509F497C08C3A910509F496C08B3B03
:101E8000910509F495C08C3B910509F494C08D3AF5
:101E9000910509F493C0803B910509F492C08E3AF4
:101EA000910509F491C08F3A910509F490C0813BE6
:101EB000910509F48FC0823B910509F48EC0833BE4
:101EC000910509F48DC0843B910509F48CC0853BD4
:101ED000910509F48BC0863B910509F48AC0873BC4
:101EE000910509F489C0883B910509F488C0893BB4
:101EF000910509F487C08A3B910509F486C0C0E0CA
:101F0000D4E485C00E94600EEC0181C0CE01992707
:101F1000D3FF03C0EC01D86C7AC0EC01D06C77C061
:101F2000DF70D06A74C0DC2FCC27C16FD06A6FC05D
:101F300040E2849FC0011124C1E0D0E002C0CC0F78
:101F4000DD1F2A95E2F7C82BD92BDA6860C0D82F9D
:101F5000CC27C46FD06A5BC0D82FCC27C06FD06AA3
:101F600056C08C2F8F70806E90E0906A24E0D695DA
:101F7000C7952A95E1F7CF709C013C2BE90147C03A
:101F8000C0E0D0E044C0C1E8D0E441C0C3E8D0E440
:101F90003EC0C2EED4E43BC0C9EED4E438C0CAEEC1
:101FA000D4E435C0C5EBD4E432C0C6EBD4E42FC0D2
:101FB000C3EBD4E42CC0C4EBD4E429C0C7EBD4E415
:101FC00026C0CCECD4E423C0CDECD4E420C0C3E8DC
:101FD000D5E41DC0CAE8D5E41AC0C2E9D5E417C0EB
:101FE000C4E9D5E414C0C1E2D6E411C0C3E2D6E42A
:101FF0000EC0C4E2D6E40BC0C5E2D6E408C0C6E217
:10200000D6E405C0C7E2D6E402C0CAE2D6E4CE01F7
:10201000DF91CF9108958238910549F1B0F4813371
:10202000910509F458C048F48932910509F44EC06D
:102030008A32910509F454C008958533910509F455
:1020400040C08933910599F00895833E910529F1A7
:1020500038F4803E910591F0823E9105A1F00895FB
:10206000863E9105F9F0873E910531F10895209162
:102070002B0220FD3AC021FD38C0089580912B022B
:1020800080FD35C032C080912B0282FF32C080912A
:102090002B0284FD30C083EE39C080912B0282FD7B
:1020A00028C0F5CF80912B0283FF27C080912B029F
:1020B00084FD21C087EE2AC080912B0283FD1DC0C4
:1020C000F5CF80912B0285FD1AC01BC080912B0299
:1020D00085FD17C014C080912B0286FD14C015C069
:1020E00080912B0286FD11C00EC080EE0FC089E3E7
:1020F0000DC082EE0BC080E009C086EE07C089E209
:1021000005C085E303C08AE201C081E390E0089541
:1021100090912B0292FF0DC0282F2871283019F4BE
:10212000877F846006C0282F2471243011F48B7FB0
:10213000886093FF0DC0282F2871283119F4877EFD
:10214000846106C0282F2471243111F48B7E8861AC
:1021500094FD877E089508950F931F93CF93FB01FD
:102160002281211102C0C1E041C08C01C0915C01FB
:10217000C11125C086319C45B1F70E94AB1081E0AA
:1021800080935C010E94BD2490935B0180935A016F
:1021900010924F0110925101109250011092530170
:1021A0001092520110925501109254011092570151
:1021B00010925601109259011092580117C0809147
:1021C0005A0190915B010E94D5248C32914058F6BF
:1021D00090914F01E92FF0E0EE0FFF1FE05BFE4F03
:1021E000118300839F5F90934F01C0E08C2FCF91AC
:1021F0001F910F910895089585B7806885BF85B7B1
:10220000806885BFAFE1B1E041E050E024E02A0FF3
:102210008D91E82FE295EF70F0E031A18F70BA0157
:1022200002C0660F771F8A95E2F7CB01962F909533
:10223000932391A392A1892B82A32A13E9CFA3E12F
:10224000B1E041E050E02CE02A0F8D91E82FE295BB
:10225000EF70F0E031A18F70BA0102C0660F771FF6
:102260008A95E2F7CB01962F9095932391A392A1A3
:10227000892B82A32A13E9CF10926601109265017F
:1022800010925E0110925D01109268011092670138
:102290001092600110925F0110926A011092690120
:1022A000109262011092610110926C0110926B0108
:1022B00010926401109263010C94440E4F925F924D
:1022C0007F928F929F92AF92BF92CF92DF92EF92C6
:1022D000FF920F931F93CF93DF932FE1E22E21E024
:1022E000F22ECDE5D1E001E010E0992493946E0147
:1022F000A880B98019821882D7018D917D01E82FBD
:10230000E295EF70F0E021A18F70A80102C0440FA8
:10231000551F8A95E2F7CA01242B21A322A1842EFE
:102320008094282122A350EA5A95F1F793E1492E8F
:1023300091E0592E20E030E0D2017D912D01472F10
:1023400042954F7050E0DA0190967C904881598117
:102350007F70D80102C0AA0FBB1F7A95E2F7BD01BA
:10236000672141F4B801022E02C0660F771F0A945C
:10237000E2F702C060E070E0462B572B5983488398
:102380002F5F3F4F2C303105B9F691A1892281A2F0
:1023900092A1892B82A32296F60180819181A816B1
:1023A000B90641F090926D010E94BD2490936F0197
:1023B00080936E01F1E0C536DF0709F098CF809178
:1023C0006D01882351F180916E0190916F010E94FF
:1023D000D524069710F180915D0190915E01909354
:1023E00066018093650180915F01909160019093F7
:1023F00068018093670180916101909162019093DF
:102400006A018093690180916301909164019093C6
:102410006C0180936B0110926D010E94460E81E069
:10242000DF91CF911F910F91FF90EF90DF90CF90B0
:10243000BF90AF909F908F907F905F904F90089546
:10244000E82FF0E0EE0FFF1FEB59FE4F80819181E6
:102450000895CF92DF92EF92FF920F931F93CF9345
:10246000DF9385EF93E00E941E0A85E6E82E81E067
:10247000F82EC0E0D0E090EFC92E93E0D92E07EE01
:1024800013E0DF93CF93DF92CF920E94B70A8DEED5
:1024900093E00E941E0AF701819191917F010E94B1
:1024A00041239F938F931F930F930E94B70A85EE4A
:1024B00093E00E941E0A21968DB79EB708960FB62C
:1024C000F8949EBF0FBE8DBFC430D105D1F6DF9109
:1024D000CF911F910F91FF90EF90DF90CF900895D3
:1024E000EF92FF920F931F93CF93DF93E90166233F
:1024F00009F44BC0242F30E0EFEFF0E0E61BF109C8
:10250000B901E69F9001E79F300DF69F300D112431
:10251000232F8B01031B11095CE3E52EF12CB7017E
:102520000E949536FB01BC01069FC001079F900DDC
:10253000169F900D1124B7010E949536E230F105E7
:10254000B1F040F4309779F0319711F5832F242FB3
:10255000461B21C0E430F105A1F068F03597C1F4C5
:10256000842F861B18C0832F262F230F14C0862F7D
:10257000830FE42F03C0E42FE61B842F432F2E2F5D
:102580000AC0842F462F430F06C0842F242F03C078
:1025900080E020E040E0E42FF0E0ED5CF84F449173
:1025A000E22FF0E0ED5CF84F9491E82FF0E0ED5C65
:1025B000F84FE49149839883EA83DF91CF911F918B
:1025C0000F91FF90EF90089588E090E00C94CB3647
:1025D000AB01BC0188E090E00C94E936E7E1F2E061
:1025E00083E08083109218028FEF828383831482AA
:1025F00060817181828193810C94E8128091E40161
:1026000080FF08C082E197E09F938F930E94B70AF2
:102610000F900F908091E40180FF0FC0809117020E
:1026200081701F928F9385EF96E09F938F930E9406
:10263000B70A0F900F900F900F908091E40180FFE8
:1026400010C08091170286958F731F928F938AED29
:1026500096E09F938F930E94B70A0F900F900F9070
:102660000F908091E40180FF19C080911702881FAC
:102670008827881F90911802292F220F822B97FB01
:10268000992790F99F938F9380EC96E09F938F9377
:102690000E94B70A0F900F900F900F908091E40165
:1026A00080FF0EC0809119021F928F9386EA96E0F8
:1026B0009F938F930E94B70A0F900F900F900F90E7
:1026C0008091E40180FF0EC080911A021F928F93C7
:1026D0008CE896E09F938F930E94B70A0F900F901B
:1026E0000F900F908091E40180FF0EC080911B023B
:1026F0001F928F9380E796E09F938F930E94B70A73
:102700000F900F900F900F9008956091170260FF47
:1027100006C066956F7370E080E090E0089560E019
:1027200070E0CB0108958091170280FF26C0817868
:10273000826080931702662399F06091170270916E
:1027400018028091190290911A020E94E812809159
:10275000170286958F731F928F9386EB95E005C0C5
:102760001F9281E08F9388E995E09F938F930E9459
:10277000B70A0F900F900F900F90089561E00C949E
:10278000931381E00C94BE138091170286958F738A
:10279000815009F481E00C94BE1360E00C94931313
:1027A0008091E40181608093E40189E596E09F9344
:1027B0008F930E94B70A8091E4010F900F9080FFE1
:1027C00008C083E496E09F938F930E94B70A0F900E
:1027D0000F900E947C23811110C08091E40180FF42
:1027E00008C08BE196E09F938F930E94B70A0F90E9
:1027F0000F900E945B230E94EE120E94E4126093ED
:102800001702709318028093190290931A026E7740
:10281000C1F48091E40180FF08C082ED95E09F93B0
:102820008F930E94B70A0F900F900E94EE120E94A1
:10283000E412609317027093180280931902909328
:102840001A020E94FE128091170280FF06C0869530
:102850008F730E94CD130C94210B0895CF93DF93B7
:10286000C7E1D2E08881816088831F9281E08F93E5
:102870008AE295E09F938F930E94B70A0F900F9082
:102880000F900F90888186958F73DF91CF910C9474
:10289000BE13CF93DF93C7E1D2E088818160888344
:1028A0001F9281E08F9381EF94E09F938F930E941A
:1028B000B70A0F900F900F900F90888186958F73B5
:1028C000DF91CF910C94CD1380911B0290E0019683
:1028D0008430910514F083E090E080931B026091B6
:1028E0001702709118028091190290911A020C94AB
:1028F000E81280911B0290E0019797FF02C080E0F0
:1029000090E08430910514F083E090E080931B0206
:1029100060911702709118028091190290911A0229
:102920000C94E8128091170280FF06C063E070E00B
:102930008CE192E00C94521710921D0210921C022E
:1029400010921E021092200210921F021092210279
:10295000109223021092220210922402E7CFCF930A
:10296000DF93C7E1D2E088818E7F88836881798197
:102970008A819B810E94E812888181701F928F93C7
:1029800089EB94E09F938F930E94B70A2FEF80E723
:1029900092E0215080409040E1F700C000000F908D
:1029A0000F900F900F90DF91CF910C949214809123
:1029B0001702809581701F928F9381E695E09F9317
:1029C0008F930E94B70A809117020F900F900F907B
:1029D0000F9080FD0C94AF140C942E14E7E1F2E0FC
:1029E00080818E7F80831F921F928FE794E09F9358
:1029F0008F930E94B70A2FEF80E792E0215080402A
:102A00009040E1F700C000000F900F900F900F90E2
:102A10000C9492149091170290FF14C080931D02A1
:102A200060931C0240931E028093200260931F0259
:102A30004093210280932302609322024093240258
:102A40000C94921408952F923F924F925F926F923E
:102A50007F928F929F92AF92BF92CF92DF92EF922E
:102A6000FF920F931F93CF93DF93CDB7DEB72797D6
:102A70000FB6F894DEBF0FBECDBF8C01262E342ECC
:102A80002D838091170280FFDDC0982F9E779230B2
:102A900061F49E012F5F3F4FC8010E9470124B816D
:102AA00069818A810E940A1580C0E82FE695EF733C
:102AB0009EE39E0F9F73943018F430901A0275C0F5
:102AC0009AE39E0F9F73993068F4881F8827881FA8
:102AD00090911802292F220F022F082B97FB112704
:102AE00010F963C087E28E0F8F738A3008F05DC0E3
:102AF000F0E07997E0FD03C021E02C8302C03FEFB6
:102B00003C83EE7FE75DF84F859094908C81682E32
:102B1000880F7708C40163E070E00E949536669ED6
:102B20002001679E500C769E500C1124580198E9A4
:102B3000A91A9EEFB90A8CE1C82E82E0D82EE12CAA
:102B4000F12CC50168E671E00E9495362091E40100
:102B500020FF18C09F928F927F92AC81AF939F937A
:102B60008F93FF92EF92A8E5B4E0BF93AF938E836B
:102B70009F830E94B70A0FB6F894DEBF0FBECDBF89
:102B80009F818E819601432D622D0E947012BFEFAE
:102B9000EB1AFB0AA40CB51C23E0C20ED11C33E0D7
:102BA000E316F10471F60E9492148091170200FB63
:102BB00087F980931702809118028078902F96955C
:102BC000892B10FB87F9809318022092190230920A
:102BD0001A028D81882321F16091170270911802E9
:102BE0008091190290911A020E94E81280911A02B3
:102BF0001F928F93809119021F928F9380911702D9
:102C0000881F8827881F90911802292F220F822B56
:102C100097FB992790F99F938F9383E394E009C0E2
:102C20001F923F921F922F9211701F930F938CE06F
:102C300094E09F938F930E94B70A0FB6F894DEBF7B
:102C40000FBECDBF27960FB6F894DEBF0FBECDBF27
:102C5000DF91CF911F910F91FF90EF90DF90CF9078
:102C6000BF90AF909F908F907F906F905F904F90AC
:102C70003F902F90089521E00C942315E7E1F2E0B6
:102C80002081221F2227221F30911802432F440F38
:102C9000842F822B37FB992790F90A9668E671E01A
:102CA0000E94A936438162810C943B162091170241
:102CB000221F2227221F30911802432F440F842FF6
:102CC000822B37FB992790F98A3091051CF4825AA0
:102CD0009E4F01C00A9768E671E00E94A9364091B4
:102CE0001A02609119020C943B1660911902862F0A
:102CF00090E08F3E910514F46F5E01C06FEF8091FC
:102D00001702881F8827881F90911802292F220FE9
:102D100097FB992790F940911A02822B0C943B164D
:102D200060911902862F90E0419714F0615101C023
:102D300060E080911702881F8827881F90911802F1
:102D4000292F220F97FB992790F940911A02822B85
:102D50000C943B1640911A02842F90E08F3E91050F
:102D600014F44F5E01C04FEF80911702881F88272F
:102D7000881F90911802292F220F97FB992790F90D
:102D800060911902822B0C943B1640911A02842FF9
:102D900090E0419714F0415101C040E0809117024A
:102DA000881F8827881F90911802292F220F97FBD0
:102DB000992790F960911902822B0C943B16CF93BE
:102DC000DF932091170220FF38C0562FEC01229686
:102DD000DB018A2F851B841760F5CD01FE01319739
:102DE00060812C9130E0F901EE0FFF1F2E0F3F1F85
:102DF000F901E45EFD4F6183FE01329760812D9100
:102E000030E0F901EE0FFF1F2E0F3F1FF901E45EC6
:102E1000FD4F60836881FC01208130E0F901EE0FF5
:102E2000FF1F2E0F3F1FF901E45EFD4F62832396C3
:102E3000D0CFDF91CF910C949214DF91CF91089570
:102E40002BB1342F309523233BB1432B3FB7F8945C
:102E5000FC01680F791FE617F70789F0819198E068
:102E60004BB9000000C087FF2BB9880F000000C0DD
:102E700000C000C02BB900C09A9591F7ECCF3FBFBE
:102E800008952AB1242B2AB99B01220F331F620F08
:102E9000731F0E94201787EC90E00197F1F700C0A4
:102EA0000000089541E00C944117909375018093C0
:102EB00074010895E0917401F0917501309721F04B
:102EC0000190F081E02D099480E00895EF92FF9247
:102ED0000F931F93CF93DF93E0917401F0917501ED
:102EE0003097B1F18C010280F381E02D099580913A
:102EF000E40182FF2DC080FF04C08BE398E00E94B4
:102F00001E0AE80110E285E3E82E88E0F82E8091A1
:102F1000E40180FF0BC088811F928F93FF92EF9294
:102F20000E94B70A0F900F900F900F9011502196AA
:102F30001111EDCF8091E40180FF0AC083E398E096
:102F4000DF91CF911F910F91FF90EF900C941E0A8B
:102F5000DF91CF911F910F91FF90EF900895E09135
:102F60007401F0917501309721F00480F581E02D16
:102F7000099408952091720130917301821793078B
:102F800071F09093730180937201E0917401F0915C
:102F90007501309721F00680F781E02D099408959E
:102FA00020917001309171018217930771F0909315
:102FB000710180937001E0917401F0917501309777
:102FC00021F00084F185E02D0994089508950C9472
:102FD000E61781E008950E94B4240E94FC100E942C
:102FE00095250C94D013CF93C82F8091E40182FFD4
:102FF0001EC080FF04C084E598E00E941E0A8091F4
:10300000E40180FF0CC01F92CF938FE498E09F9360
:103010008F930E94B70A0F900F900F900F9080919E
:10302000E40180FF04C08DE498E00E941E0A8C2F0A
:10303000CF910C94480E4F925F927F928F929F9205
:10304000AF92BF92CF92DF92EF92FF920F931F93B6
:10305000CF93DF93CDB7DEB72A970FB6F894DEBFD4
:103060000FBECDBF0E945E110E94E917811111C0F1
:103070008FEF89838A831B820E94BD248160782F11
:103080009D838C8349815A816B818D810E94D918DF
:1030900057C097E7C92E91E0D92E00E010E0AA248E
:1030A000A394B12C702E802F0E9420124C01F601A7
:1030B000419051906F01482659264114510431F432
:1030C0000F5F1F4F0430110569F7D2CF8091E401E3
:1030D00081FD0E94291220E030E07501022E02C01D
:1030E000EE0CFF1C0A94E2F7C70184219521892B7D
:1030F00009F12E837F828E209F2091E0892809F498
:1031000090E098870E94BD248160782F9A878987F4
:103110004E815F8168858A850E94D918000F111F32
:10312000F801E958FE4F80819181E826F926F18265
:10313000E08206C02F5F3F4F2C30310571F6C0CFC3
:103140000E94C228109176010E945A171817D9F0D0
:103150000E945A17809376012A960FB6F894DEBF24
:103160000FBECDBFDF91CF911F910F91FF90EF90D8
:10317000DF90CF90BF90AF909F908F907F905F90A7
:103180004F900C94F3172A960FB6F894DEBF0FBE3B
:10319000CDBFDF91CF911F910F91FF90EF90DF9006
:1031A000CF90BF90AF909F908F907F905F904F9007
:1031B0000895CF93DF93CDB7DEB72B970FB6F89472
:1031C000DEBF0FBECDBF4F83588769877A878B8755
:1031D000DE01119686E0FD0111928A95E9F785E0FE
:1031E000FE01379601900D928A95E1F749815A8147
:1031F0006B817C818D819E810E940B202B960FB666
:10320000F894DEBF0FBECDBFDF91CF910895FC01D2
:10321000808191810E9477220895CF93DF931F923E
:10322000CDB7DEB7882309F403C1682F8238C1F413
:103230000E945A1781FDFCC069E3809100019091C2
:1032400001010E9420240E94B7222FEF81EE94E01A
:10325000215080409040E1F700C0000069E319C0B0
:10326000833811F50E945A1780FDE2C063E5809112
:103270000001909101010E9420240E94B7222FEFAB
:1032800081EE94E0215080409040E1F700C00000C2
:1032900063E580910001909101010E942B240F9021
:1032A000DF91CF910C94B7228438C1F40E945A1751
:1032B00082FDBEC067E480910001909101010E94EF
:1032C00020240E94B7222FEF81EE94E0215080400D
:1032D0009040E1F700C0000067E4DBCF8CEF860F81
:1032E000813A70F4862F69830E943F2D6981811194
:1032F0009FC080910001909101010E942024CFCFB6
:1033000080E2860F883048F4677081E001C0880F42
:103310006A95EAF70E94ED22C2CF8BE5860F8330D3
:1033200088F4653A29F0663A31F083E890E005C008
:1033300081E890E002C082E890E00F90DF91CF91A9
:103340000C94BA1788E5860F853108F071C0683A89
:1033500061F1693A69F16A3A71F16B3A79F16C3A63
:1033600081F16B3B89F16C3B91F16D3A99F1603BD6
:10337000A1F16E3AA9F16F3AB1F1613BB9F1623B4B
:10338000C1F1633BC9F1643BD1F1653BD9F1663BC7
:10339000E1F1673BE9F1683BF1F1693BF9F16A3B27
:1033A00009F43FC080E090E03EC082EE90E03BC078
:1033B00089EE90E038C08AEE90E035C085EB90E071
:1033C00032C086EB90E02FC083EB90E02CC084EB02
:1033D00090E029C087EB90E026C08CEC90E023C001
:1033E0008DEC90E020C083E891E01DC08AE891E078
:1033F0001AC082E991E017C084E991E014C081E22B
:1034000092E011C083E292E00EC084E292E00BC031
:1034100085E292E008C086E292E005C087E292E091
:1034200002C08AE292E00F90DF91CF910C94D01706
:103430000F90DF91CF910895882309F45BC0682F26
:10344000823879F40E945A1781FF54C069E3809151
:103450000001909101010E9420240E94B72269E39B
:1034600010C08338B1F40E945A1780FF43C063E54F
:1034700080910001909101010E9420240E94B722B6
:1034800063E580910001909101010E942B240C942E
:10349000B722843879F40E945A1782FF2BC067E460
:1034A00080910001909101010E9420240E94B72286
:1034B00067E4E7CF8CEF860F813A18F380E2860F3E
:1034C000883048F4677081E001C0880F6A95EAF798
:1034D0000E94F322DCCF8BE5860F833020F480E05E
:1034E00090E00C94BA17685A653120F480E090E0BF
:1034F0000C94D0170895882321F00E94ED220C949B
:10350000B7220895882321F00E94F3220C94B72259
:1035100008954F925F926F927F92BF92CF92DF9207
:10352000EF92FF920F931F93CF93DF937C01D62FDF
:10353000C72FFC01058102950F70128111110E94A5
:103540000A230E94B022882379F0112369F080E2D7
:103550008D0F883048F082E00E9499220E94B022AC
:1035600091E0B82EB92601C0B12CCC2EC2948FE0C8
:10357000C822D12CF601E859FF4F0C94BD368C2F90
:10358000807FCF70882311F0C295C07F112399F0FE
:10359000CC2309F4CFC180E28D0F883010F0D11117
:1035A00004C08C2F0E94ED2203C08C2F0E94FD22AC
:1035B0000E94B722BFC18D2F0E941C1ACC2309F490
:1035C000DEC180E28D0F883010F0D11104C08C2F45
:1035D0000E94F32203C08C2F0E9403230E94B72273
:1035E000CEC18C2F807FCF70803211F0C295C07F0A
:1035F000DD2319F0D130C9F022C0112371F000236E
:1036000041F0013031F40E9423238C2B0E941D23B2
:10361000B6C10E9423238C2B46C1002319F0013030
:1036200009F4ADC10E94202318C0112321F00630F7
:1036300008F0A5C10EC0053008F0A1C10EC01123CD
:1036400051F0002331F0F701858180FF73C18F7045
:1036500085838C2F28C101117EC18C2F2AC18C2F0C
:1036600086958695837090E0009719F0019761F038
:1036700086C1112321F08D2F9C2F937002C080E012
:1036800090E00E94BA178BC1112321F08D2F9C2F3F
:10369000937002C080E090E00E94D01780C1112397
:1036A000F9F0D53F51F0D63F71F0D43FA9F48091A5
:1036B00025029091260281600BC080912502909195
:1036C0002602826005C080912502909126028460C6
:1036D00090932602809325028D2F0E9448271EC0BA
:1036E000D53F51F0D63F71F0D43FA9F48091250227
:1036F000909126028E7F0BC0809125029091260228
:103700008D7F05C080912502909126028B7F90933A
:103710002602809325028D2F0E94B0270E94352813
:103720003EC18C2F837009F050C0111134C18D2F10
:10373000829586958770880F880F9D2F9F70492EE0
:10374000512C612C712C082E04C0440C551C661C95
:10375000771C0A94D2F7D4FF14C00FE010E020E0E9
:1037600030E0B901A80104C0440F551F661F771F40
:103770008A95D2F7CB01BA016095709580959095A6
:1037800003C060E070E0CB01C695C695C370D0E081
:10379000C230D10561F0C330D10581F064297529AB
:1037A00086299729219771F00E944E21F4C064293F
:1037B0007529862997290E946021EDC00E944E211B
:1037C000C301B2010E943C21E6C0112319F08C2FE5
:1037D000817001C08695882309F4DDC08D2F829504
:1037E00086958770880F880F9D2F9F70492E512CCA
:1037F000612C712C082E04C0440C551C661C771CCF
:103800000A94D2F7D4FF14C00FE010E020E030E0BB
:10381000B901A80104C0440F551F661F771F8A9580
:10382000D2F7CB01BA01609570958095909503C051
:1038300060E070E0CB01C695C695C3704C2F50E098
:103840004230510569F04330510589F064297529EA
:10385000862997294130510571F00E9413229BC09F
:1038600064297529862997290E94252294C00E94DF
:103870001322C301B2010E9401228DC08D2F90E05E
:10388000FC01E05EF109E531F10508F04FC0E858B0
:10389000FF4F0C94BD36DF708C2F8F71112331F0E8
:1038A0000E949A218D2F0E947B1A69C00E94BB2121
:1038B0008D2F0E94821A63C0112341F0053008F059
:1038C0005EC08C2F8F710E94E02159C0063008F035
:1038D00056C0F7CF112339F08C2F8F710E949A2197
:1038E0004EC01123C9F38C2F8F710E94BB2147C09A
:1038F000112329F08C2F8F710E94852140C00E94D6
:1039000080213DC0112349F0CF718C2F0E949A2154
:1039100063E08C2F0E94902232C081E00E949922A5
:10392000023068F182E00E94992229C0112331F00F
:10393000002391F28D2F0E940D1921C0002399F2CE
:10394000D93349F45FEF67EE73E051506040704047
:10395000E1F700C000008D2F0E941C1A10C04C2FF0
:103960004F706D2FC7010E944A0E0E94AF2017C0F2
:103970004C2F4F706D2FC7010E944D0E10C088E074
:10398000C816D10441F05CF0EAE0CE1AD108F2E0AA
:10399000CF16D10420F40E945A170E94480EBB2073
:1039A000F1F00E948C2280FD1AC0F70112820E9461
:1039B00086220E949A21C7010E94FD1C0E94862235
:1039C000DF91CF911F910F91FF90EF90DF90CF90FB
:1039D000BF907F906F905F904F900C94BB21DF91D0
:1039E000CF911F910F91FF90EF90DF90CF90BF90FC
:1039F0007F906F905F904F9008950F931F93CF9398
:103A0000DF93EC01888199812B813C81232BB9F0D4
:103A10009F3F11F48F3F99F0CE010E945C0B8823E9
:103A200071F0688179818A810E9482228C010E94D2
:103A300037220E943921B801CE010E94891ADF91F4
:103A4000CF911F910F9108950E940A230E941A237B
:103A500080910001909101010E9436240E94B722BA
:103A60000E9450290E94352880E090E00E94BA17F9
:103A700080E090E00C94D0170E94FA220C94241D50
:103A80000E947722E92FE295EF70F0E03297EE3056
:103A9000F105B0F4E357FF4F0C94BD36803F91F031
:103AA00018F4803E68F40EC0843F51F40BC0803E91
:103AB00048F0813F29F406C093FB882780F90895D8
:103AC00080E0089581E00895CF93DF9300D000D087
:103AD0001F92CDB7DEB70F900F900F900F900F9001
:103AE000DF91CF910895CF93DF9300D000D000D025
:103AF000CDB7DEB726960FB6F894DEBF0FBECDBFAA
:103B0000DF91CF9108951F93CF93DF93C0917F01F1
:103B100016E080918001C81799F0D0E01C9FF00159
:103B20001D9FF00D1124EF57FE4F4081518162819E
:103B30007381848195810E94731D2196C770E9CF9E
:103B4000DF91CF911F9108954091B1015091B20141
:103B50006091B3017091B4018091B5019091B6016B
:103B60000C94731D20917F019091800156E02917DC
:103B7000A9F030E0529FF001539FF00D1124EF5750
:103B8000FE4F7181671306C07081871303C0728175
:103B9000471306C02F5F3F4F2770E9CF80E008959D
:103BA00081E008958091B60182958F7009F054C02C
:103BB0008091B301882309F44FC080917F01A091C7
:103BC00080016091B1017091B2014091B4015091B6
:103BD000B501B6E08A1709F43FC090E041155105E0
:103BE000C1F17F3F11F46F3FA1F1B89FF001B99F80
:103BF000F00D1124EF57FE4F218172132AC020814E
:103C0000621327C02281211124C02381348124170B
:103C1000350710F421503109241B350B2F3A31059B
:103C2000C0F42091B6012F7020612093B60126E0E8
:103C3000289FF001299FF00D1124EA57FE4F808143
:103C40008F708061808381EB91E00E94FD1C0C9459
:103C5000831D01968770BECF0895AF92BF92CF9219
:103C6000DF92EF92FF920F931F93CF93DF93CDB725
:103C7000DEB762970FB6F894DEBF0FBECDBF7C01F2
:103C800085E0F701DE011D9601900D928A95E1F71E
:103C9000D7010C9111965C9111971296BC901297D6
:103CA0001396CD90DC9014973091B1014091B20100
:103CB0008091B4019091B501009709F47DC14F3F07
:103CC00019F43F3F09F478C1A090B301AA2009F488
:103CD0000DC12091B601C816D90628F0F601E81BDF
:103CE000F90BCF0104C0809590958C0D9D1D11E0BE
:103CF0008F3A910588F010E0207F09F0BEC07C2D3E
:103D0000D98AC88A402F6B2D89890E94641D81EB56
:103D100091E00E94FD1C48C1822F807F09F075C090
:103D2000451314C0301312C0B11010C02F702061A1
:103D30002093B6010E94A41D81EB91E00E94FD1C1E
:103D40008091B601D70115968C9320C0CD2809F437
:103D500052C05F3F19F40F3F09F44DC0B11018C0B5
:103D600040E0652F802F5A8B0E94B21D5A8988230C
:103D700079F081EB91E00E94FD1CE1EBF1E086E03F
:103D8000DF011D928A95E9F70E94A41D10E031C160
:103D90005F3F11F40F3F79F1B1102DC040E0652F66
:103DA000802F5A8B0E94B21D182F5A89811123C06F
:103DB0000D875E878D859E850E947722292F22950B
:103DC0002F7030E02230310524F02430310534F0FA
:103DD0005EC09F7051F0811108C00BC19F7029F027
:103DE000F7019581907F09F404C190E2980F983013
:103DF00008F04DC0FEC01B2DBB2009F4FAC0809115
:103E0000B60181608093B601C1CF451308C030135D
:103E100006C0B11004C08091B601D7019DC00D87C6
:103E20005E878D859E850E94401D882381F1BB2081
:103E300071F12091B601822F82958F7090E00297E8
:103E400074F08091B1019091B20198878F831986A7
:103E5000DB86CA862C87CE0107960E94FD1C86E071
:103E6000F701A1EBB1E001900D928A95E1F70E9474
:103E7000D21D0E94A41D11E0BCC0451761F00D8742
:103E80005E878D859E850E94401D811118C0C701E7
:103E90000E94FD1CF0CF3013F2CFB110F0CF809113
:103EA000B601F7018583C7010E94FD1C86E0E1EBA6
:103EB000F1E0DF011D928A95E9F71A2D9AC0BB2027
:103EC00031F32091B601822F82958F7090E0029796
:103ED00034F28091B1019091B2019A8389831B825F
:103EE000DD82CC822E83CE010196B7CFC816D906CB
:103EF00028F0F601E81BF90BCF0104C080959095DE
:103F00008C0D9D1D8F3A910550F010E07C2DD98AC3
:103F1000C88A402F6B2D89890E94641D45C01B2DC6
:103F2000BB2009F4B4CF45132EC030132CC0209110
:103F3000B60120FD1FC0822F82958F70D9F0D70166
:103F400015962C9315978F3049F08F5F982F929587
:103F5000907F822F8F70892B15968C93C7010E94BA
:103F6000FD1C86E0F701A1EBB1E001900D928A956E
:103F7000E1F73DC086E0F701A1EBB1E001900D92C1
:103F80008A95E1F736C00D875E878D859E850E94F4
:103F9000401D811164CF8091B60181608093B6018C
:103FA000C7010E94FD1C25C0E1EBF1E086E0DF01C6
:103FB0001D928A95E9F71BC0BB2009F468CF0D87D5
:103FC0005E878D859E850E94401D182F882309F4E9
:103FD0005ECF86E0F701A1EBB1E001900D928A95EA
:103FE000E1F781EB91E00E9407190E94D21D0E9427
:103FF000A41D812F62960FB6F894DEBF0FBECDBF11
:10400000DF91CF911F910F91FF90EF90DF90CF90B4
:10401000BF90AF9008951F93CF93DF93CDB7DEB7D6
:104020002C970FB6F894DEBF0FBECDBF4F835887D5
:1040300069877A878B879C87CE0107960E942D1E01
:10404000882369F08F8198852A853B85232BF1F1A0
:104050009F3F09F063C08F3F09F060C037C086E022
:10406000FE013796DE01119601900D928A95E1F7D7
:104070006F817885EA85FB85309741F17F3F11F4A8
:104080006F3F21F12091800130E0C90101968770D6
:10409000992740917F0150E08417950709F447C0A4
:1040A00069837A83FD83EC8396E0929FD001939F8E
:1040B000B00D1124AF57BE4FFE01319601900D9205
:1040C0009A95E1F7809380010E94831D16E080910C
:1040D0007F01909180018917C1F1189FC0011124BF
:1040E0008F579E4F0E942D1E882379F1E0917F010A
:1040F0001E9FF0011124EF57FE4F408151816281D4
:104100007381848195810E94731D80917F0190E06D
:1041100001968770992780937F01D9CF4F81588569
:1041200069857A858B859C850E94731DCFCF0E94FF
:104130003C1D1092800110927F01E1EBF1E086E0DE
:10414000DF011D928A95E9F7C1CF2C960FB6F8943E
:10415000DEBF0FBECDBFDF91CF911F910895EF92CB
:10416000FF920F931F93CF93DF938C01892B09F458
:104170006CC0F12CEE24E394E8012196F8018491BF
:10418000843740F4843008F051C0813081F08230AF
:1041900019F15BC0853709F444C0A8F19CE7980F7A
:1041A000903708F052C08F770E941C1A41C00E5FF2
:1041B0001F4FFE01C49180E28C0F883048F4C77015
:1041C0008E2D01C0880FCA95EAF70E940D2314C0F6
:1041D0008C2F0E940D192DC00E5F1F4FFE01C49140
:1041E00080E28C0F883058F4C7708E2D01C0880F84
:1041F000CA95EAF70E9413230E94B7221AC08C2F97
:104200000E941C1A16C00E5F1F4FFE01C491CC23E2
:1042100081F08FE99FE00197F1F700C00000C150E5
:10422000F6CF0E5F1F4FFE01F49003C00E940D19E0
:104230008E018F2D882309F49FCFEFE9FFE031979E
:10424000F1F700C000008150F5CFDF91CF911F91B1
:104250000F91FF90EF90089508950E942C21609394
:10426000BB017093BC018093BD019093BE010C947F
:10427000241D08950C942D210F931F930091BB01D1
:104280001091BC012091BD013091BE01602B712BBA
:10429000822B932B1F910F910C942D210F931F9321
:1042A0000091BB011091BC012091BD013091BE0174
:1042B00060237123822393231F910F910C942D214E
:1042C0000F931F930091BB011091BC012091BD0180
:1042D0003091BE0160277127822793271F910F918C
:1042E0000C942D210C94390B0E9472216093B7011C
:1042F0007093B8018093B9019093BA010C94241D76
:1043000060E070E0CB010C9474210F931F9341E0A7
:1043100050E060E070E08A019B0104C0000F111FB3
:10432000221F331F8A95D2F7C901B8011F910F913F
:104330000C9474210F931F9341E050E060E070E013
:1043400004C0440F551F661F771F8A95D2F78091CE
:10435000B7019091B801A091B901B091BA018A0159
:104360009B01082B192B2A2B3B2BC901B8011F914C
:104370000F910C9474210F931F9341E050E060E083
:1043800070E004C0440F551F661F771F8A95D2F74F
:1043900040955095609570958091B7019091B801C6
:1043A000A091B901B091BA018A019B010823192398
:1043B0002A233B23C901B8011F910F910C9474214A
:1043C0000F931F9341E050E060E070E004C0440FA1
:1043D000551F661F771F8A95D2F78091B70190917C
:1043E000B801A091B901B091BA018A019B010827D7
:1043F00019272A273B27C901B8011F910F910C9457
:1044000074210F931F930091B7011091B80120916F
:10441000B9013091BA01602B712B822B932B1F9124
:104420000F910C9474210F931F930091B701109179
:10443000B8012091B9013091BA0160237123822320
:1044400093231F910F910C9474210F931F9300914C
:10445000B7011091B8012091B9013091BA016027DC
:104460007127822793271F910F910C94742108952F
:10447000CF92DF92EF92FF920F931F93CF93DF9330
:104480008C01C090BB01D090BC01E090BD01F090C8
:10449000BE018091B7019091B801A091B901B0918E
:1044A000BA01C82AD92AEA2AFB2ACFE1D0E0D701EB
:1044B000C6010C2E04C0B695A795979587950A94CA
:1044C000D2F780FF06C0B8018C2F0E94680E0197BA
:1044D00021F4219760F780E001C08C2FDF91CF910C
:1044E0001F910F91FF90EF90DF90CF900895CF93A1
:1044F000DF93EC010E943822BE010E94680EDF911A
:10450000CF910895CB010E94772208958091BF0139
:1045100085958595859508958091BF01877008954B
:1045200098E0899F90011124262B2093BF010C94C1
:104530009A212091BF01809582238093BF01982FFB
:10454000977069F430E0482F082E000C550B2417A3
:10455000350729F08595859585950C94BB2108959F
:104560009091BF01977081E009F480E00895E09197
:104570000001F09101018091E3018083E09100014D
:10458000F091010190818091E201892B8083E0917B
:104590000001F091010190818091E101892B8083DC
:1045A0008091C001882381F0E0910001F091010128
:1045B0009081892B808380910001909101010E945C
:1045C000A22381111092C0018091000190910101FC
:1045D0000C9466178091E30108959091E301892B73
:1045E0008093E301089580959091E301892380935E
:1045F000E30108951092E30108959091E201892B5F
:104600008093E201089580959091E201892380933F
:10461000E20108951092E20108959091E101892B41
:104620008093E101089580959091E1018923809321
:10463000E10108951092E10108958093C001089569
:104640001092C00108958091C00108959093470190
:104650008093460108958295982F9C7C392F36953A
:104660003695282F237344E0249FC0011124932FF3
:10467000982B292F2A7A2695892F8575880F822BCA
:1046800008951F93CF93DF931F92CDB7DEB7998321
:104690000E942B23182F9981892F0E942B23212FD1
:1046A00030E0322F2227A901482BCA010F90DF9159
:1046B000CF911F9108956DEE7EEF80E090E00E9413
:1046C000F53660E082E090E00E94D73660E083E05B
:1046D00090E00E94D73660E084E090E00E94D736F8
:1046E00060E085E090E00E94D73640E050E0BA01FB
:1046F00088E090E00C94E93680E090E00E94D136AA
:1047000021E08D3E9E4F09F020E0822F089582E047
:1047100090E00C94C336682F82E090E00C94D7367A
:1047200083E090E00C94C336682F83E090E00C9413
:10473000D73684E090E00C94C336682F84E090E094
:104740000C94D736FC0131969C01205E3F4F80E0EF
:10475000919191118F5FE217F307D1F708959C01B2
:10476000FC0132969FEF80E04191461789F09F3F10
:1047700019F4411101C0982F8F5F8E31A9F79F3F27
:1047800039F0F901E90FF11D97FDFA95628308955B
:104790000895FC01329680962081261301C0108274
:1047A0003196E817F907C1F70895262F2695269523
:1047B00026952F3170F4FC01E20FF11D677021E0A6
:1047C00030E001C0220F6A95EAF78181282B21830E
:1047D00008958091E40180FF0CC01F926F9385E8DB
:1047E00098E09F938F930E94B70A0F900F900F90BD
:1047F0000F900895262F2695269526952F3178F42B
:10480000FC01E20FF11D677021E030E001C0220FD2
:104810006A95EAF720958181282321830895809164
:10482000E40180FF0CC01F926F9387E698E09F938E
:104830008F930E94B70A0F900F900F900F900895DA
:1048400020911201222329F020912B0227FD0C94A4
:10485000D5230C94AF2320911201222329F020911B
:104860002B0227FD0C94FA230C94C923FC013196EA
:1048700080961192E817F907E1F7089580913102C7
:10488000843049F11092E50120E488E190E00FB610
:10489000F894A895809360000FBE2093600080E09C
:1048A0000E94480E0E94EE1483B7817F846083BF0C
:1048B00083B7816083BF7894889583B78E7F83BFE9
:1048C0000FB6F894A895809160008861809360008D
:1048D000109260000FBE089508950895CF930E942E
:1048E0006C240E945E110E946D24C0E08C2F0E94F7
:1048F0002012892B29F4CF5FC430C1F780E001C0BA
:1049000081E0CF9108950E943C1D0E945A170E9499
:10491000480E0C9449141F920F920FB60F92112457
:104920008F939F93AF93BF938091E501811113C043
:104930008091270290912802A0912902B0912A0229
:104940004196A11DB11D8093270290932802A09348
:104950002902B0932A02BF91AF919F918F910F903E
:104960000FBE0F901F90189582E084BD93E095BD17
:104970009AEF97BD80936E0008952FB7F8948091B9
:10498000270290912802A0912902B0912A022FBFFC
:1049900008952FB7F89460912702709128028091B2
:1049A000290290912A022FBF0895CF92DF92EF92B1
:1049B000FF920F931F932FB7F894409127025091C5
:1049C00028026091290270912A022FBF6A017B019F
:1049D000EE24FF248C0120E030E0C016D106E20670
:1049E000F30610F4415051099A01281B390BC901F3
:1049F0001F910F91FF90EF90DF90CF9008957894E2
:104A00001F920F920FB60F9211248F939F93AF9323
:104A1000BF938091270290912802A0912902B09122
:104A20002A020196A11DB11D8093270290932802AE
:104A3000A0932902B0932A02BF91AF919F918F91C9
:104A40000F900FBE0F901F90189581E08093E000AB
:104A500080E28093D8001092C9008FE19EE4019714
:104A6000F1F700C0000087E090EBDC0180933A0290
:104A700090933B02A0933C02B0933D029CE088E1FE
:104A80000FB6F894A895809360000FBE90936000D5
:104A9000FFCFAF92BF92CF92DF92EF92FF920F9330
:104AA0001F93CF93C0E0CC24C394D12CE82EF12CDB
:104AB0008C2F0E9420125C0100E010E09601002E75
:104AC00002C0220F331F0A94E2F72A213B21232B35
:104AD00031F40F5F1F4F0C30110581F70AC0602FB2
:104AE0007C2F80E00E944E0EE816F90691F781E0D7
:104AF00004C0CF5FC430E1F680E0CF911F910F91E9
:104B0000FF90EF90DF90CF90BF90AF900895CF933C
:104B1000C82F8CE20E944925882321F08C2FCF9149
:104B20000C94492580E0CF910895CF930E947C2377
:104B3000811102C00E945B238AEA98E00E941E0A4B
:104B4000C5E6C15049F00E945E118FE39CE90197D0
:104B5000F1F700C00000F5CF83EA98E00E941E0A3A
:104B600089E20E94872581110FC18AE20E94872570
:104B700081110E945B2385E00E94872581110E949C
:104B800025250E9487238093E40187E00E948725E2
:104B90008823A9F18BE10E948725882351F0809119
:104BA000E40181FB222720F991E0922790FB81F913
:104BB0000EC08EE00E948725882361F08091E40179
:104BC00082FB222720F991E0922790FB82F98093C3
:104BD000E40115C080E10E9487259091E4018823BB
:104BE00041F093FB222720F981E0822780FB93F993
:104BF00004C0892F809580FB90F99093E401809107
:104C0000E4010E948B230E94992390E090932C0250
:104C100080932B0280EE0E948725882341F08091AB
:104C20002B02982F909590FB80F980932B0289E3BB
:104C30000E948725882359F080912B0281FB22272F
:104C400020F991E0922790FB81F980932B0282EE6C
:104C50000E948725882359F080912B0282FB22270E
:104C600020F991E0922790FB82F980932B0286EE47
:104C70000E948725882359F080912B0283FB2227ED
:104C800020F991E0922790FB83F980932B0283EE29
:104C90000E948725882359F080912B0284FB2227CC
:104CA00020F991E0922790FB84F980932B0285E311
:104CB0000E948725882359F080912B0285FB2227AB
:104CC00020F991E0922790FB85F980932B0281E3F4
:104CD0000E948725882359F080912B0286FB22278A
:104CE00020F991E0922790FB86F980932B0281E1D5
:104CF0000E948725882359F080912B0287FB222769
:104D000020F991E0922790FB87F980932B02809104
:104D10002B020E949D2387E20E948725C82F8EE1E7
:104D20000E9487258111C2608FE10E948725811131
:104D3000C46080E20E9487258111C86081E20E94E0
:104D400087258111C06182E20E9487258111C0629E
:104D500083E20E9487258111C06484E20E94872536
:104D6000882311F0C06802C0CC2329F08C2F0E9448
:104D700094236C2F03C00E949023682F70E080E082
:104D800090E0CF910C943A21CF9108958091E80161
:104D900080FF0BC06091050185E0689FB001112480
:104DA00075956795759567952BC081FF09C06091D2
:104DB000050185E0689FB00111247595679520C0B5
:104DC00082FF07C06091050185E0689FB001112452
:104DD00017C09091E9019923D1F0609104019617D1
:104DE00088F72091050185E0289F90011124929F6A
:104DF000A001939F500D112470E0CA010E94A936B2
:104E00006038710540F46115710539F002C065E044
:104E100070E0862F08958FE7089581E008958091CE
:104E2000E80180FF08C06091030170E07595679507
:104E30007595679521C081FF06C06091030170E000
:104E40007595679519C082FF04C06091030170E0F9
:104E500010C09091E9019923C1F060910201961769
:104E6000A0F780910301899FC001112470E00E9486
:104E7000A9366038710528F46115710521F0862F77
:104E800008958FE7089581E0089561E070E0F4CF20
:104E9000803F21F40E94C626819504C0813F29F4F9
:104EA0000E94C6268093EC010895823F21F40E945F
:104EB000C626819504C0833F29F40E94C6268093AC
:104EC000EB010895893F19F40E940F2705C08A3F1E
:104ED00031F40E940F2781958093ED0108958B3F57
:104EE00021F40E940F27819504C08C3F29F40E9471
:104EF0000F278093EE010895843F21F48091EA0109
:104F0000816017C0853F21F48091EA01826011C061
:104F1000863F21F48091EA0184600BC0873F21F431
:104F20008091EA01886005C0883F31F48091EA01F0
:104F300080618093EA0108958D3F21F48091E8011A
:104F400081600BC08E3F21F48091E801826005C032
:104F50008F3F29F48091E80184608093E8010895EF
:104F6000803F39F48091EC0187FF6CC01092EC0116
:104F700069C0813F29F48091EC011816BCF362C02E
:104F80009091EB01823F29F497FF5CC01092EB01F6
:104F900059C0833F19F41916CCF354C0893F41F42A
:104FA0008091ED0118160CF04DC01092ED014AC031
:104FB0008A3F29F48091ED0187FF44C0F6CF8B3FF3
:104FC00039F48091EE0187FF3DC01092EE013AC0A6
:104FD0008C3F29F48091EE011816BCF333C0843F56
:104FE00021F48091EA018E7F17C0853F21F48091E2
:104FF000EA018D7F11C0863F21F48091EA018B7F09
:105000000BC0873F21F48091EA01877F05C0883F6C
:1050100031F48091EA018F7E8093EA0113C08D3FC5
:1050200021F48091E8018E7F0BC08E3F21F48091A6
:10503000E8018D7F05C08F3F29F48091E8018B7FC7
:105040008093E8018091EB0181110EC08091EC0109
:1050500081110AC08091ED01811106C08091EE019D
:10506000811102C01092E90108958091E40183FF4B
:105070007EC086EE98E00E941E0A8091EA011F928F
:105080008F9381EE98E09F938F930E94B70A8FEDE4
:1050900098E00E941E0A8091EB01282F082E000C38
:1050A000330B3F938F938CED98E09F938F930E94E7
:1050B000B70A8AED98E00E941E0A8091EC01282F21
:1050C000082E000C330B3F938F9387ED98E09F934E
:1050D0008F930E94B70A85ED98E00E941E0A809186
:1050E000ED01282F082E000C330B3F938F9382ED98
:1050F00098E09F938F930E94B70A80ED98E00E94FA
:105100001E0A8091EE01282F082E000C330B3F93CE
:105110008F938DEC98E09F938F930E94B70A8AEC4F
:1051200098E00E941E0A8091E9011F928F9387ECFC
:1051300098E09F938F930E94B70A85EC98E00E94B5
:105140001E0A8091E8011F928F9382EC98E09F9352
:105150008F930E94B70A8FEB98E00E941E0A8DB7CA
:105160009EB74C960FB6F8949EBF0FBE8DBF8AEEC9
:1051700091E00E94AF170E94BD249093E7018093B5
:10518000E60108951F93CF93DF938091E6019091FC
:10519000E7010E94D524AC019091E901992321F007
:1051A0002091060130E006C0209107018AE0289F87
:1051B000900111244217530708F46EC08091EB014F
:1051C000C091EC01D091ED011091EE01811107C069
:1051D000C1115EC0D1115CC011115AC05DC09F3FAA
:1051E00019F09F5F9093E901181624F40E94C626D7
:1051F0008093EB018091EB0187FF05C00E94C626DA
:1052000081958093EB011C1624F40E94C62680939E
:10521000EC018091EC0187FF05C00E94C6268195B4
:105220008093EC014091EB01442379F03091EC0143
:10523000332359F025EB4203A00111245093EB01D5
:105240003203C00111249093EC011D1624F40E9436
:105250000F278093ED018091ED0187FF05C00E942B
:105260000F2781958093ED01111624F40E940F27DA
:105270008093EE018091EE0187FF05C00E940F2709
:1052800081958093EE01DF91CF911F910C94352889
:105290009F3F09F0A6CFAECFDF91CF911F91089528
:1052A000EAEEF1E085E0DF011D928A95E9F71092C0
:1052B000E9011092E801089589E09BE00E941E0A2E
:1052C0001F9281E08F931F9285E08F938BEB9AE082
:1052D0009F938F930E94B70A0F900F900F900F909B
:1052E0000F900F9008958330E9F128F4813061F038
:1052F000823009F10895853009F462C008F449C08C
:10530000863009F474C0089580910701262F30E09B
:10531000280F311D2F3F310524F4680F60930701DA
:1053200003C08FEF80930701809107011F928F9335
:1053300084EF99E072C080910601262F30E0280F9B
:10534000311D2F3F310524F4680F6093060103C01F
:105350008FEF80930601809106011F928F9382EE5A
:1053600099E05BC080910501262F30E0280F311DA8
:105370002F3F310524F4680F6093050103C08FEFC0
:1053800080930501809105011F928F938FEC99E026
:1053900044C080910401262F30E0280F311D2F3F9B
:1053A000310524F4680F6093040103C08FEF8093EC
:1053B0000401809104011F928F938AEB99E02DC024
:1053C00080910301262F30E0280F311D2F3F31053A
:1053D00024F4680F6093030103C08FEF80930301EF
:1053E000809103011F928F9381EA99E016C080910A
:1053F0000201262F30E0280F311D2F3F310524F404
:10540000680F6093020103C08FEF809302018091C7
:1054100002011F928F9386E899E09F938F930E94D9
:10542000B70A0F900F900F900F900895833081F17D
:1054300028F4813059F08230D1F00895853009F494
:1054400049C0B8F1863009F456C00895809107012B
:10545000681720F4861B8093070102C01092070191
:10546000809107011F928F9387E799E054C0809144
:105470000601681720F4861B8093060102C0109273
:105480000601809106011F928F9385E699E043C043
:1054900080910501681720F4861B8093050102C0E6
:1054A00010920501809105011F928F9382E599E08A
:1054B00032C080910401681720F4861B8093040198
:1054C00002C010920401809104011F928F938DE31A
:1054D00099E021C080910301681720F4861B809316
:1054E000030102C010920301809103011F928F9368
:1054F00084E299E010C080910201681720F4861BB5
:105500008093020102C010920201809102011F9259
:105510008F9389E099E09F938F930E94B70A0F9031
:105520000F900F900F900895CF93C82F1F928F93D5
:105530008EE09CE09F938F930E94B70A81E090E0F9
:10554000A0E0B0E0BC01CD0104C0660F771F881F4A
:10555000991FCA95D2F70E943A210F900F900F9091
:105560000F90CF910C943C1DCF938B3109F4CBC19C
:1055700008F049C08E3009F4DAC100F5873009F42B
:10558000A9C1A8F4863009F063C28091E401817F4B
:105590008E7F8093E4018FE99DE00E941E0A8CE5D6
:1055A00091E10E941E0A81E08093F00191C1883050
:1055B00009F45BC08B3009F487C14AC2813109F418
:1055C00029C220F4803109F4C6C142C2863109F4EF
:1055D000DDC1893109F03CC280E99DE00E941E0ACC
:1055E00085E79DE00E941E0A85E39DE00E941E0A59
:1055F00087E09DE00E941E0A82EC9CE00E941E0A49
:1056000084E99CE063C1853309F41EC268F48732E3
:1056100009F41AC228F48E3108F41AC28D5115C249
:10562000893209F411C214C2833438F48A3308F081
:1056300009C2883309F448C10BC2833409F404C297
:10564000883409F005C20E943C1D80E491E10E946B
:105650001E0A9FEF23ED80E3915020408040E1F748
:1056600000C000000E94252533C180E691E10E9420
:105670001E0A8DEA90E10E941E0A0E9490231F924A
:105680008F938AEA90E19F938F930E94B70A88EAEA
:1056900090E10E941E0A0E948723C82F85E990E1AD
:1056A0000E941E0A1F92CF9380E990E19F938F93EF
:1056B0000E94B70A8EE890E10E941E0A84E890E1F9
:1056C0000E941E0A8C2F81701F928F9381E890E1B7
:1056D0009F938F930E94B70A8FE790E10E941E0A62
:1056E00085E790E10E941E0AC1FB882780F91F927E
:1056F0008F9382E790E19F938F930E94B70A80E790
:1057000090E10E941E0A84E690E10E941E0AC2FBFC
:10571000882780F91F928F9381E690E19F938F9362
:105720000E94B70A8FE590E10E941E0A86E590E18B
:105730000E941E0AC3FBCC27C0F91F92CF9383E5BA
:1057400090E19F938F930E94B70A81E590E10E94B8
:105750001E0A0E949923C82F8DE390E10E941E0A21
:105760001F92CF9388E390E19F938F930E94B70A93
:1057700086E390E10E941E0A8DE190E10E941E0ADC
:105780008C2F81701F928F938AE190E19F938F936A
:105790000E94B70A8DB79EB780960FB6F8949EBF49
:1057A0000FBE8DBF88E190E10E941E0A81E090E16A
:1057B0000E941E0AC1FB882780F91F928F938EEFEB
:1057C0009FE09F938F930E94B70A8CEF9FE00E9407
:1057D0001E0A8AEE9FE00E941E0AC2FB882780F9FB
:1057E0001F928F9387EE9FE09F938F930E94B70A3B
:1057F00085EE9FE00E941E0A83ED9FE00E941E0A34
:10580000C3FB882780F91F928F9380ED9FE09F93C1
:105810008F930E94B70A8EEC9FE00E941E0A84ECD0
:105820009FE00E941E0AC4FB882780F91F928F9375
:1058300081EC9FE09F938F930E94B70A8FEB9FE0CC
:105840000E941E0A8DEA9FE00E941E0AC5FB88275F
:1058500080F91F928F938AEA9FE09F938F930E9413
:10586000B70A88EA9FE00E941E0A8CE89FE00E9427
:105870001E0AC6FB882780F91F928F9389E89FE054
:105880009F938F930E94B70A87E89FE00E941E0AA9
:105890008FE79FE00E941E0AC7FBCC27C0F91F922A
:1058A000CF938CE79FE09F938F930E94B70A8AE77C
:1058B0009FE00E941E0A8DB79EB74C960FB6F894D3
:1058C0009EBF0FBE8DBF04C086EC9DE00E941E0AE5
:1058D000C1E0C3C08091E401C82FC095C170C0FB76
:1058E00080F98093E401CC2319F084E391E1A4C012
:1058F00087E291E10E941E0A8091E401897F877FFF
:105900008093E401E5CF9091E40191FBCC27C0F9AD
:1059100081E0C827892FC0FB81F98093E401CC2363
:1059200019F08AE191E127C08CE091E1CFCF90910D
:10593000E40192FBCC27C0F981E0C827892FC0FB86
:1059400082F98093E401CC2319F08DEF90E113C02C
:105950008DEE90E1BBCF9091E40193FBCC27C0F991
:1059600081E0C827892FC0FB83F98093E401CC2311
:1059700051F081EE90E10E941E0A8091E401816065
:105980008093E4016AC084ED90E1A0CF86E89CE0BA
:105990000E941E0A0E945A171F928F938CE69CE069
:1059A0009F938F930E94B70A809112011F928F9349
:1059B00085E59CE09F938F930E94B70A8091150222
:1059C0001F928F9382E49CE09F938F930E94B70A6B
:1059D00080912B0287FB882780F91F928F938AE2A0
:1059E0009CE09F938F930E94B70A0E94C9249F93C3
:1059F0008F937F936F9383E19CE09F938F930E949B
:105A0000B70A8DB79EB746960FB6F8949EBF0FBEE5
:105A10008DBF5ECF0E943C1D90912B0297FBCC273F
:105A2000C0F981E0C827892FC0FB87F980932B023A
:105A3000CC2329F08AEC90E10E941E0A0EC08FEB65
:105A400090E144CF895301C080E00E94942A40CF66
:105A50008DEB90E10E941E0AC0E08C2FCF9108953B
:105A600080E0089580E008958E518A3030F4E82F68
:105A7000F0E0ED5DFE4F8081089580E00895CF93C2
:105A8000C82F8091F001813071F020F0823009F44C
:105A90004BC03FC1E0910001F09101018081823251
:105AA00009F039C107C0E0910001F0910101808146
:105AB000823261F48C2F0E94302D811104C08C2F12
:105AC0000E94B42A2FC081E090E02CC08C2F0E944D
:105AD000322D811126C0C431E1F070F4CB3081F059
